:08000000803102288731F52F41
:100D680016302100970008002000110E890C013967
:100D7800080071082000A1007008A0000800710890
:100D88002000A5007008A400080071082000A30036
:100D98007008A2000800F0002000111ED42ED52EE5
:100DA800D02E700823009A000800703021009900A6
:100DB80098012200960121001A1FE32EE42EDF2E4F
:100DC800080087311F2786318631D926863186313A
:100DD800B426863187314E27863108002000911EBF
:100DE800F62EF72EF22EA60123009D1CFC2EFD2EBA
:100DF800FF2E1D121D1619080800F0012000111EF3
:100E0800062F072F0E2F23009E1E0B2F0C2F0E2FA1
:100E1800F001F00A700808007C08F6007B08F5006D
:100E28008731AF2787312630F5008830F6008731C3
:100E3800AF278731080022008C018E013F30210046
:100E48008C0037308E00073023008E0017308C005E
:100E580024008C018E012100951722009D019E011E
:100E680008007108F4007008F3003E2F0130F00705
:100E78000030F13D70088400710885001200031DE0
:100E8800462F472F3A2F73087002F0007408713B01
:100E9800F1000800083023009F0090309D002430A6
:100EA8009E0040309B0003309C000030F000003072
:100EB800F1008631C32687310030F0000030F100A0
:100EC8008631C92687310030F0000030F1008631C4
:100ED800BD2687312000A60108008631E526873126
:100EE8002230FB008830FC0087311027873186319B
:100EF800B8268731003A0319822F832F7B2F86313A
:100F0800F2268731FD007D082000A70087310127E0
:100F18008731003A0319912F922F7B2F0030F5006B
:100F28008830F6008731AF2787312730FB00003043
:100F3800FC00873110278731333020002706031D36
:100F4800A62FA72FAA2F22008E157B2F22008E11E5
:100F58007B2F803102287608F1007508F000873170
:100F6800352787317108FA007008F90000307A02D5
:100F7800023003197902031CC22FC32FE82FF7018F
:100F8800F801DD2F75088400760885000008863191
:100F9800CF2687310130F5070030F63D750884000B
:100FA80076088500000823009A000130F707003012
:100FB800F83D7A087802031DE32F79087702031CAD
:100FC800E62FE72FC62FF42F2000111EEC2FED2F50
:100FD800E82F7508840076088500000823009A0029
:100FE80008002000A001A101A201A301A401A501FC
:100FF800A60120008731712F59346F34753472344B
:101008002034633468346F3469346334653420348D
:101018006934733420343A34203428343334203457
:1010280074346F3420346C346934673468347434FD
:1010380020346C34653464342934003448346934D9
:0A104800213400340A340D34003462
:020000040001F9
:04000E00E43FFF1FAD
:00000001FF
